{
  "contractName": "SupplyChain",
  "abi": [
    {
      "constant": true,
      "inputs": [
        {
          "name": "",
          "type": "uint256"
        }
      ],
      "name": "items",
      "outputs": [
        {
          "name": "name",
          "type": "string"
        },
        {
          "name": "sku",
          "type": "uint256"
        },
        {
          "name": "price",
          "type": "uint256"
        },
        {
          "name": "state",
          "type": "uint8"
        },
        {
          "name": "seller",
          "type": "address"
        },
        {
          "name": "buyer",
          "type": "address"
        }
      ],
      "payable": false,
      "stateMutability": "view",
      "type": "function"
    },
    {
      "inputs": [],
      "payable": false,
      "stateMutability": "nonpayable",
      "type": "constructor"
    },
    {
      "anonymous": false,
      "inputs": [
        {
          "indexed": false,
          "name": "sku",
          "type": "uint256"
        }
      ],
      "name": "LogForSale",
      "type": "event"
    },
    {
      "anonymous": false,
      "inputs": [
        {
          "indexed": false,
          "name": "sku",
          "type": "uint256"
        }
      ],
      "name": "LogSold",
      "type": "event"
    },
    {
      "anonymous": false,
      "inputs": [
        {
          "indexed": false,
          "name": "sku",
          "type": "uint256"
        }
      ],
      "name": "LogShipped",
      "type": "event"
    },
    {
      "anonymous": false,
      "inputs": [
        {
          "indexed": false,
          "name": "sku",
          "type": "uint256"
        }
      ],
      "name": "LogReceived",
      "type": "event"
    },
    {
      "constant": false,
      "inputs": [
        {
          "name": "_name",
          "type": "string"
        },
        {
          "name": "_price",
          "type": "uint256"
        }
      ],
      "name": "addItem",
      "outputs": [
        {
          "name": "",
          "type": "bool"
        }
      ],
      "payable": false,
      "stateMutability": "nonpayable",
      "type": "function"
    },
    {
      "constant": false,
      "inputs": [
        {
          "name": "sku",
          "type": "uint256"
        }
      ],
      "name": "buyItem",
      "outputs": [],
      "payable": true,
      "stateMutability": "payable",
      "type": "function"
    },
    {
      "constant": false,
      "inputs": [
        {
          "name": "sku",
          "type": "uint256"
        }
      ],
      "name": "shipItem",
      "outputs": [],
      "payable": false,
      "stateMutability": "nonpayable",
      "type": "function"
    },
    {
      "constant": false,
      "inputs": [
        {
          "name": "sku",
          "type": "uint256"
        }
      ],
      "name": "receiveItem",
      "outputs": [],
      "payable": false,
      "stateMutability": "nonpayable",
      "type": "function"
    },
    {
      "constant": true,
      "inputs": [
        {
          "name": "_sku",
          "type": "uint256"
        }
      ],
      "name": "fetchItem",
      "outputs": [
        {
          "name": "name",
          "type": "string"
        },
        {
          "name": "sku",
          "type": "uint256"
        },
        {
          "name": "price",
          "type": "uint256"
        },
        {
          "name": "state",
          "type": "uint256"
        },
        {
          "name": "seller",
          "type": "address"
        },
        {
          "name": "buyer",
          "type": "address"
        }
      ],
      "payable": false,
      "stateMutability": "view",
      "type": "function"
    }
  ],
  "bytecode": "0x608060405234801561001057600080fd5b50336000806101000a81548173ffffffffffffffffffffffffffffffffffffffff021916908373ffffffffffffffffffffffffffffffffffffffff1602179055506000600181905550610e72806100686000396000f3fe6080604052600436106100555760003560e01c806362d6bbdf1461005a578063a26be99914610144578063ad4b9cfb1461017f578063bfb231d2146102ae578063e7fb74c7146103eb578063f61c899a14610419575b600080fd5b34801561006657600080fd5b5061012a6004803603604081101561007d57600080fd5b810190808035906020019064010000000081111561009a57600080fd5b8201836020820111156100ac57600080fd5b803590602001918460018302840111640100000000831117156100ce57600080fd5b91908080601f016020809104026020016040519081016040528093929190818152602001838380828437600081840152601f19601f82011690508083019250505050505050919291929080359060200190929190505050610454565b604051808215151515815260200191505060405180910390f35b34801561015057600080fd5b5061017d6004803603602081101561016757600080fd5b810190808035906020019092919050505061060c565b005b34801561018b57600080fd5b506101b8600480360360208110156101a257600080fd5b8101908080359060200190929190505050610736565b60405180806020018781526020018681526020018581526020018473ffffffffffffffffffffffffffffffffffffffff1673ffffffffffffffffffffffffffffffffffffffff1681526020018373ffffffffffffffffffffffffffffffffffffffff1673ffffffffffffffffffffffffffffffffffffffff168152602001828103825288818151815260200191508051906020019080838360005b8381101561026e578082015181840152602081019050610253565b50505050905090810190601f16801561029b5780820380516001836020036101000a031916815260200191505b5097505050505050505060405180910390f35b3480156102ba57600080fd5b506102e7600480360360208110156102d157600080fd5b81019080803590602001909291905050506108e1565b604051808060200187815260200186815260200185600381111561030757fe5b60ff1681526020018473ffffffffffffffffffffffffffffffffffffffff1673ffffffffffffffffffffffffffffffffffffffff1681526020018373ffffffffffffffffffffffffffffffffffffffff1673ffffffffffffffffffffffffffffffffffffffff168152602001828103825288818151815260200191508051906020019080838360005b838110156103ab578082015181840152602081019050610390565b50505050905090810190601f1680156103d85780820380516001836020036101000a031916815260200191505b5097505050505050505060405180910390f35b6104176004803603602081101561040157600080fd5b8101908080359060200190929190505050610a02565b005b34801561042557600080fd5b506104526004803603602081101561043c57600080fd5b8101908080359060200190929190505050610c78565b005b60007f4627c48065af2a9648cbecdd4b9da340c00e501243cd49a8a71c30c987e8b7616001546040518082815260200191505060405180910390a16040518060c001604052808481526020016001548152602001838152602001600060038111156104bb57fe5b81526020013373ffffffffffffffffffffffffffffffffffffffff168152602001600073ffffffffffffffffffffffffffffffffffffffff168152506002600060015481526020019081526020016000206000820151816000019080519060200190610528929190610da1565b50602082015181600101556040820151816002015560608201518160030160006101000a81548160ff0219169083600381111561056157fe5b021790555060808201518160030160016101000a81548173ffffffffffffffffffffffffffffffffffffffff021916908373ffffffffffffffffffffffffffffffffffffffff16021790555060a08201518160040160006101000a81548173ffffffffffffffffffffffffffffffffffffffff021916908373ffffffffffffffffffffffffffffffffffffffff16021790555090505060018054016001819055506001905092915050565b806002600381111561061a57fe5b6002600083815260200190815260200160002060030160009054906101000a900460ff16600381111561064957fe5b1461065357600080fd5b6002600083815260200190815260200160002060040160009054906101000a900473ffffffffffffffffffffffffffffffffffffffff168073ffffffffffffffffffffffffffffffffffffffff163373ffffffffffffffffffffffffffffffffffffffff16146106c257600080fd5b7f5a98827d06afe0e04647b3aed26f1ffb77171ad9ac41603c4ef623a6638798c1836040518082815260200191505060405180910390a160036002600085815260200190815260200160002060030160006101000a81548160ff0219169083600381111561072c57fe5b0217905550505050565b60606000806000806000600260008881526020019081526020016000206000018054600181600116156101000203166002900480601f0160208091040260200160405190810160405280929190818152602001828054600181600116156101000203166002900480156107ea5780601f106107bf576101008083540402835291602001916107ea565b820191906000526020600020905b8154815290600101906020018083116107cd57829003601f168201915b5050505050955060026000888152602001908152602001600020600101549450600260008881526020019081526020016000206002015493506002600088815260200190815260200160002060030160009054906101000a900460ff16600381111561085257fe5b92506002600088815260200190815260200160002060030160019054906101000a900473ffffffffffffffffffffffffffffffffffffffff1691506002600088815260200190815260200160002060040160009054906101000a900473ffffffffffffffffffffffffffffffffffffffff16905085858585858595509550955095509550955091939550919395565b6002602052806000526040600020600091509050806000018054600181600116156101000203166002900480601f01602080910402602001604051908101604052809291908181526020018280546001816001161561010002031660029004801561098d5780601f106109625761010080835404028352916020019161098d565b820191906000526020600020905b81548152906001019060200180831161097057829003601f168201915b5050505050908060010154908060020154908060030160009054906101000a900460ff16908060030160019054906101000a900473ffffffffffffffffffffffffffffffffffffffff16908060040160009054906101000a900473ffffffffffffffffffffffffffffffffffffffff16905086565b8060006003811115610a1057fe5b6002600083815260200190815260200160002060030160009054906101000a900460ff166003811115610a3f57fe5b14610a4957600080fd5b600260008381526020019081526020016000206002015480341015610a6d57600080fd5b82600060026000868152602001908152602001600020600201549050336002600087815260200190815260200160002060040160006101000a81548173ffffffffffffffffffffffffffffffffffffffff021916908373ffffffffffffffffffffffffffffffffffffffff1602179055506002600086815260200190815260200160002060030160019054906101000a900473ffffffffffffffffffffffffffffffffffffffff1673ffffffffffffffffffffffffffffffffffffffff166108fc829081150290604051600060405180830381858888f19350505050158015610b5a573d6000803e3d6000fd5b5060016003811115610b6857fe5b6002600087815260200190815260200160002060030160009054906101000a900460ff166003811115610b9757fe5b50507fe64ca8c671e48636f85f3008c1dd538e36bfa74fb6f2790b56b72fcc33b879ef856040518082815260200191505060405180910390a150600060026000838152602001908152602001600020600201549050600081340390506002600084815260200190815260200160002060040160009054906101000a900473ffffffffffffffffffffffffffffffffffffffff1673ffffffffffffffffffffffffffffffffffffffff166108fc829081150290604051600060405180830381858888f19350505050158015610c6f573d6000803e3d6000fd5b50505050505050565b8060016003811115610c8657fe5b6002600083815260200190815260200160002060030160009054906101000a900460ff166003811115610cb557fe5b14610cbf57600080fd5b6002600083815260200190815260200160002060030160019054906101000a900473ffffffffffffffffffffffffffffffffffffffff168073ffffffffffffffffffffffffffffffffffffffff163373ffffffffffffffffffffffffffffffffffffffff1614610d2e57600080fd5b600280600085815260200190815260200160002060030160006101000a81548160ff02191690836003811115610d6057fe5b02179055507feaf695929fec8154f0eafe7248c0e16855eb9ad09e623be92f669e544d53e856836040518082815260200191505060405180910390a1505050565b828054600181600116156101000203166002900490600052602060002090601f016020900481019282601f10610de257805160ff1916838001178555610e10565b82800160010185558215610e10579182015b82811115610e0f578251825591602001919060010190610df4565b5b509050610e1d9190610e21565b5090565b610e4391905b80821115610e3f576000816000905550600101610e27565b5090565b9056fea165627a7a7230582005eb310ce5cee20f55644d7147d19350ff82caea7698e04d81a30ae277b6024e0029",
  "source": "/*\n    This exercise has been updated to use Solidity version 0.5\n    Breaking changes from 0.4 to 0.5 can be found here: \n    https://solidity.readthedocs.io/en/v0.5.0/050-breaking-changes.html\n*/\n///@title Supply Chain\n///@author Sanchay Mittal\n///@notice Offers basic functionality of Supply Chain, which includes selling, buying, receiving and enquery regarding a product.\n///@dev All the functions are fully working, And are prepared for counter meaasures.\npragma solidity ^0.5.0;\n\ncontract SupplyChain {\n\n  //\n  // State Variable\n  //\n\n  ///@notice set owner\n  address owner;\n\n  ///@notice skuCount to track the most recent sku\n  uint skuCount;\n\n  ///@notice A public mapping that maps the SKU(a number) to an Item.\n  mapping (uint => Item) public items;\n\n  ///@notice Enum named state represents the items current state.\n  enum State{\n    ForSale,\n    Sold,\n    Shipped,\n    Received\n  }\n\n  ///@notice Struct Item to keep track of details for each item.\n  ///@dev Payable is added to keep track of details for each item.\n  struct Item{\n    string name;\n    uint sku;\n    uint price;\n    State state;\n    address payable seller;\n    address payable buyer;\n  }\n\n  //\n  // Events\n  //\n  \n    event LogForSale(uint sku);\n    event LogSold(uint sku);\n    event LogShipped(uint sku);\n    event LogReceived(uint sku);\n\n  //\n  // Modifier\n  //\n\n  ///@notice Checks the owner of the contract\n  modifier checkOwner(){require(msg.sender == owner); _;}\n\n  ///@notice verify the transaction caller using address.\n  modifier verifyCaller (address _address) {require (msg.sender == _address); _;}\n  \n  ///@notice Checks the amount of balance paid.\n  modifier paidEnough(uint _price) {require(msg.value >= _price); _;}\n  \n  ///@notice Refund the excess amount\n  modifier checkValue(uint _sku) {\n    //refund them after pay for item (why it is before, _ checks for logic before func)\n    _;\n    uint _price = items[_sku].price;\n    uint amountToRefund = msg.value - _price;\n    items[_sku].buyer.transfer(amountToRefund);\n  }\n  \n  ///@notice Checks the state for ForSale\n  modifier forSale(uint _sku){\n    require(items[_sku].state == State.ForSale);\n    _; \n  }\n\n  ///@notice Checks the state for Sold\n  modifier sold(uint _sku){\n    require(items[_sku].state == State.Sold);\n    _;\n  }\n\n  ///@notice Checks the state for Shipping.\n  modifier shipped(uint _sku){\n    require(items[_sku].state == State.Shipped);\n    _;\n  }\n\n  ///@notice Checks the state for Received.\n  modifier received(uint _sku){\n    require(items[_sku].state == State.Received);\n    _;\n  }\n\n\n  constructor() public {\n    /* Here, set the owner as the person who instantiated the contract\n       and set your skuCount to 0. */\n       owner = msg.sender;\n       skuCount = 0;\n  }\n\n  ///@notice AddItem to the items list.\n  ///@dev Mapping items is updated with item details.\n  ///@param _name Name of the Item.\n  ///@param _price Price of the Item.\n  ///@return Success of Updation.\n  function addItem(string memory _name, uint _price) public returns(bool){\n    emit LogForSale(skuCount);\n    items[skuCount] = Item({name: _name, sku: skuCount, price: _price, state: State.ForSale, seller: msg.sender, buyer: address(0)});\n    skuCount = skuCount + 1;\n    return true;\n  }\n\n  /* Add a keyword so the function can be paid. This function should transfer money\n    to the seller, set the buyer as the person who called this transaction, and set the state\n    to Sold. Be careful, this function should use 3 modifiers to check if the item is for sale,\n    if the buyer paid enough, and check the value after the function is called to make sure the buyer is\n    refunded any excess ether sent. Remember to call the event associated with this function!*/\n\n  function buyItem(uint sku)\n    public\n    payable\n    forSale(sku)\n    paidEnough(items[sku].price)\n    checkValue(sku)\n  {\n    uint Price = items[sku].price;\n\n    items[sku].buyer = msg.sender;\n    items[sku].seller.transfer(Price);\n    items[sku].state == State.Sold;\n    \n    emit LogSold(sku);\n  }\n\n  /* Add 2 modifiers to check if the item is sold already, and that the person calling this function\n  is the seller. Change the state of the item to shipped. Remember to call the event associated with this function!*/\n  function shipItem(uint sku)\n    public\n    sold(sku)\n    verifyCaller(items[sku].seller)\n    {\n      items[sku].state = State.Shipped;\n      emit LogShipped(sku);\n    }\n\n  /* Add 2 modifiers to check if the item is shipped already, and that the person calling this function\n  is the buyer. Change the state of the item to received. Remember to call the event associated with this function!*/\n  function receiveItem(uint sku)\n    public\n    shipped(sku)\n    verifyCaller(items[sku].buyer)\n    {\n      emit LogReceived(sku);\n      items[sku].state = State.Received;\n    }\n\n  /* We have these functions completed so we can run tests, just ignore it :) */\n  function fetchItem(uint _sku) public view returns (string memory name, uint sku, uint price, uint state, address seller, address buyer) {\n    name = items[_sku].name;\n    sku = items[_sku].sku;\n    price = items[_sku].price;\n    state = uint(items[_sku].state);\n    seller = items[_sku].seller;\n    buyer = items[_sku].buyer;\n    return (name, sku, price, state, seller, buyer);\n  }\n\n}\n",
  "sourcePath": "/home/sanchaymittal/supply-chain-exercise-sanchaymittal/contracts/SupplyChain.sol",
  "compiler": {
    "name": "solc",
    "version": "0.5.8+commit.23d335f2.Emscripten.clang"
  },
  "schemaVersion": "3.0.11",
  "updatedAt": "2019-06-26T09:10:42.814Z",
  "devdoc": {
    "methods": {
      "addItem(string,uint256)": {
        "details": "Mapping items is updated with item details.",
        "params": {
          "_name": "Name of the Item.",
          "_price": "Price of the Item."
        },
        "return": "Success of Updation."
      }
    }
  },
  "userdoc": {
    "methods": {
      "addItem(string,uint256)": {
        "notice": "AddItem to the items list."
      }
    }
  }
}